{
  "contractName": "AllPurposeCapped",
  "abi": [
    {
      "constant": true,
      "inputs": [],
      "name": "name",
      "outputs": [
        {
          "name": "",
          "type": "string"
        }
      ],
      "payable": false,
      "stateMutability": "view",
      "type": "function"
    },
    {
      "constant": false,
      "inputs": [
        {
          "name": "spender",
          "type": "address"
        },
        {
          "name": "value",
          "type": "uint256"
        }
      ],
      "name": "approve",
      "outputs": [
        {
          "name": "",
          "type": "bool"
        }
      ],
      "payable": false,
      "stateMutability": "nonpayable",
      "type": "function"
    },
    {
      "constant": true,
      "inputs": [],
      "name": "totalSupply",
      "outputs": [
        {
          "name": "",
          "type": "uint256"
        }
      ],
      "payable": false,
      "stateMutability": "view",
      "type": "function"
    },
    {
      "constant": true,
      "inputs": [],
      "name": "isTransferable",
      "outputs": [
        {
          "name": "",
          "type": "bool"
        }
      ],
      "payable": false,
      "stateMutability": "view",
      "type": "function"
    },
    {
      "constant": false,
      "inputs": [
        {
          "name": "from",
          "type": "address"
        },
        {
          "name": "to",
          "type": "address"
        },
        {
          "name": "value",
          "type": "uint256"
        }
      ],
      "name": "transferFrom",
      "outputs": [
        {
          "name": "",
          "type": "bool"
        }
      ],
      "payable": false,
      "stateMutability": "nonpayable",
      "type": "function"
    },
    {
      "constant": true,
      "inputs": [],
      "name": "decimals",
      "outputs": [
        {
          "name": "",
          "type": "uint8"
        }
      ],
      "payable": false,
      "stateMutability": "view",
      "type": "function"
    },
    {
      "constant": true,
      "inputs": [],
      "name": "cap",
      "outputs": [
        {
          "name": "",
          "type": "uint256"
        }
      ],
      "payable": false,
      "stateMutability": "view",
      "type": "function"
    },
    {
      "constant": false,
      "inputs": [
        {
          "name": "spender",
          "type": "address"
        },
        {
          "name": "addedValue",
          "type": "uint256"
        }
      ],
      "name": "increaseAllowance",
      "outputs": [
        {
          "name": "success",
          "type": "bool"
        }
      ],
      "payable": false,
      "stateMutability": "nonpayable",
      "type": "function"
    },
    {
      "constant": false,
      "inputs": [],
      "name": "unpause",
      "outputs": [],
      "payable": false,
      "stateMutability": "nonpayable",
      "type": "function"
    },
    {
      "constant": false,
      "inputs": [
        {
          "name": "to",
          "type": "address"
        },
        {
          "name": "value",
          "type": "uint256"
        }
      ],
      "name": "mint",
      "outputs": [
        {
          "name": "",
          "type": "bool"
        }
      ],
      "payable": false,
      "stateMutability": "nonpayable",
      "type": "function"
    },
    {
      "constant": false,
      "inputs": [
        {
          "name": "value",
          "type": "uint256"
        }
      ],
      "name": "burn",
      "outputs": [],
      "payable": false,
      "stateMutability": "nonpayable",
      "type": "function"
    },
    {
      "constant": true,
      "inputs": [],
      "name": "isMintable",
      "outputs": [
        {
          "name": "",
          "type": "bool"
        }
      ],
      "payable": false,
      "stateMutability": "view",
      "type": "function"
    },
    {
      "constant": true,
      "inputs": [
        {
          "name": "account",
          "type": "address"
        }
      ],
      "name": "isPauser",
      "outputs": [
        {
          "name": "",
          "type": "bool"
        }
      ],
      "payable": false,
      "stateMutability": "view",
      "type": "function"
    },
    {
      "constant": true,
      "inputs": [],
      "name": "paused",
      "outputs": [
        {
          "name": "",
          "type": "bool"
        }
      ],
      "payable": false,
      "stateMutability": "view",
      "type": "function"
    },
    {
      "constant": false,
      "inputs": [],
      "name": "renouncePauser",
      "outputs": [],
      "payable": false,
      "stateMutability": "nonpayable",
      "type": "function"
    },
    {
      "constant": true,
      "inputs": [
        {
          "name": "owner",
          "type": "address"
        }
      ],
      "name": "balanceOf",
      "outputs": [
        {
          "name": "",
          "type": "uint256"
        }
      ],
      "payable": false,
      "stateMutability": "view",
      "type": "function"
    },
    {
      "constant": false,
      "inputs": [
        {
          "name": "from",
          "type": "address"
        },
        {
          "name": "value",
          "type": "uint256"
        }
      ],
      "name": "burnFrom",
      "outputs": [],
      "payable": false,
      "stateMutability": "nonpayable",
      "type": "function"
    },
    {
      "constant": false,
      "inputs": [
        {
          "name": "account",
          "type": "address"
        }
      ],
      "name": "addPauser",
      "outputs": [],
      "payable": false,
      "stateMutability": "nonpayable",
      "type": "function"
    },
    {
      "constant": false,
      "inputs": [],
      "name": "pause",
      "outputs": [],
      "payable": false,
      "stateMutability": "nonpayable",
      "type": "function"
    },
    {
      "constant": true,
      "inputs": [],
      "name": "isBurnable",
      "outputs": [
        {
          "name": "",
          "type": "bool"
        }
      ],
      "payable": false,
      "stateMutability": "view",
      "type": "function"
    },
    {
      "constant": true,
      "inputs": [],
      "name": "symbol",
      "outputs": [
        {
          "name": "",
          "type": "string"
        }
      ],
      "payable": false,
      "stateMutability": "view",
      "type": "function"
    },
    {
      "constant": false,
      "inputs": [
        {
          "name": "account",
          "type": "address"
        }
      ],
      "name": "addMinter",
      "outputs": [],
      "payable": false,
      "stateMutability": "nonpayable",
      "type": "function"
    },
    {
      "constant": false,
      "inputs": [],
      "name": "renounceMinter",
      "outputs": [],
      "payable": false,
      "stateMutability": "nonpayable",
      "type": "function"
    },
    {
      "constant": false,
      "inputs": [
        {
          "name": "spender",
          "type": "address"
        },
        {
          "name": "subtractedValue",
          "type": "uint256"
        }
      ],
      "name": "decreaseAllowance",
      "outputs": [
        {
          "name": "success",
          "type": "bool"
        }
      ],
      "payable": false,
      "stateMutability": "nonpayable",
      "type": "function"
    },
    {
      "constant": false,
      "inputs": [
        {
          "name": "to",
          "type": "address"
        },
        {
          "name": "value",
          "type": "uint256"
        }
      ],
      "name": "transfer",
      "outputs": [
        {
          "name": "",
          "type": "bool"
        }
      ],
      "payable": false,
      "stateMutability": "nonpayable",
      "type": "function"
    },
    {
      "constant": true,
      "inputs": [
        {
          "name": "account",
          "type": "address"
        }
      ],
      "name": "isMinter",
      "outputs": [
        {
          "name": "",
          "type": "bool"
        }
      ],
      "payable": false,
      "stateMutability": "view",
      "type": "function"
    },
    {
      "constant": true,
      "inputs": [
        {
          "name": "owner",
          "type": "address"
        },
        {
          "name": "spender",
          "type": "address"
        }
      ],
      "name": "allowance",
      "outputs": [
        {
          "name": "",
          "type": "uint256"
        }
      ],
      "payable": false,
      "stateMutability": "view",
      "type": "function"
    },
    {
      "inputs": [
        {
          "name": "name_",
          "type": "string"
        },
        {
          "name": "symbol_",
          "type": "string"
        },
        {
          "name": "decimals_",
          "type": "uint8"
        },
        {
          "name": "minter",
          "type": "address"
        },
        {
          "name": "isBurnable_",
          "type": "bool"
        },
        {
          "name": "cap_",
          "type": "uint256"
        },
        {
          "name": "isTransferable_",
          "type": "bool"
        },
        {
          "name": "isMintable_",
          "type": "bool"
        },
        {
          "name": "initialSupply",
          "type": "uint256"
        }
      ],
      "payable": false,
      "stateMutability": "nonpayable",
      "type": "constructor"
    },
    {
      "anonymous": false,
      "inputs": [
        {
          "indexed": false,
          "name": "account",
          "type": "address"
        }
      ],
      "name": "Paused",
      "type": "event"
    },
    {
      "anonymous": false,
      "inputs": [
        {
          "indexed": false,
          "name": "account",
          "type": "address"
        }
      ],
      "name": "Unpaused",
      "type": "event"
    },
    {
      "anonymous": false,
      "inputs": [
        {
          "indexed": true,
          "name": "account",
          "type": "address"
        }
      ],
      "name": "PauserAdded",
      "type": "event"
    },
    {
      "anonymous": false,
      "inputs": [
        {
          "indexed": true,
          "name": "account",
          "type": "address"
        }
      ],
      "name": "PauserRemoved",
      "type": "event"
    },
    {
      "anonymous": false,
      "inputs": [
        {
          "indexed": true,
          "name": "account",
          "type": "address"
        }
      ],
      "name": "MinterAdded",
      "type": "event"
    },
    {
      "anonymous": false,
      "inputs": [
        {
          "indexed": true,
          "name": "account",
          "type": "address"
        }
      ],
      "name": "MinterRemoved",
      "type": "event"
    },
    {
      "anonymous": false,
      "inputs": [
        {
          "indexed": true,
          "name": "from",
          "type": "address"
        },
        {
          "indexed": true,
          "name": "to",
          "type": "address"
        },
        {
          "indexed": false,
          "name": "value",
          "type": "uint256"
        }
      ],
      "name": "Transfer",
      "type": "event"
    },
    {
      "anonymous": false,
      "inputs": [
        {
          "indexed": true,
          "name": "owner",
          "type": "address"
        },
        {
          "indexed": true,
          "name": "spender",
          "type": "address"
        },
        {
          "indexed": false,
          "name": "value",
          "type": "uint256"
        }
      ],
      "name": "Approval",
      "type": "event"
    }
  ],
  "bytecode": "0x60806040526001600960046101000a81548160ff0219169083151502179055503480156200002c57600080fd5b5060405162002c0038038062002c0083398101806040528101908080518201929190602001805182019291906020018051906020019092919080519060200190929190805190602001909291908051906020019092919080519060200190929190805190602001909291908051906020019092919050505088888888888787878b620000c73362000238640100000000026401000000009004565b600081111515620000d757600080fd5b8060048190555050620000f933620002a2640100000000026401000000009004565b6000600660006101000a81548160ff02191690831515021790555087600790805190602001906200012c9291906200081a565b508660089080519060200190620001459291906200081a565b5085600960006101000a81548160ff021916908360ff16021790555083600960016101000a81548160ff02191690831515021790555082600960026101000a81548160ff02191690831515021790555081600960036101000a81548160ff021916908315150217905550821515620001d157620001d06200030c640100000000026401000000009004565b5b620001eb8562000238640100000000026401000000009004565b620002063382620003d7640100000000026401000000009004565b6000600960046101000a81548160ff0219169083151502179055505050505050505050505050505050505050620008c9565b6200025c81600362000447640100000000026200210d179091906401000000009004565b8073ffffffffffffffffffffffffffffffffffffffff167f6ae172837ea30b801fbfcdd4108aa1d5bf8ff775444fd70256b44e6bf3dfc3f660405160405180910390a250565b620002c681600562000447640100000000026200210d179091906401000000009004565b8073ffffffffffffffffffffffffffffffffffffffff167f6719d08c1888103bea251a4ed56406bd0c3e69723c8a1686e017e7bbe159b6f860405160405180910390a250565b600960049054906101000a900460ff161515620003b7576040517f08c379a00000000000000000000000000000000000000000000000000000000081526004018080602001828103825260298152602001807f746869732066756e6374696f6e2063616e206f6e6c792062652072756e206f6e81526020017f206372656174696f6e000000000000000000000000000000000000000000000081525060400191505060405180910390fd5b620003d56200050a64010000000002620016e6176401000000009004565b565b6004546200041582620003f8620005cd640100000000026401000000009004565b620005d76401000000000262001cd2179091906401000000009004565b111515156200042357600080fd5b620004438282620005f964010000000002620021bd176401000000009004565b5050565b600073ffffffffffffffffffffffffffffffffffffffff168173ffffffffffffffffffffffffffffffffffffffff16141515156200048457600080fd5b6200049f828262000758640100000000026401000000009004565b151515620004ac57600080fd5b60018260000160008373ffffffffffffffffffffffffffffffffffffffff1673ffffffffffffffffffffffffffffffffffffffff16815260200190815260200160002060006101000a81548160ff0219169083151502179055505050565b6200052433620007ed640100000000026401000000009004565b15156200053057600080fd5b600660009054906101000a900460ff161515156200054d57600080fd5b6001600660006101000a81548160ff0219169083151502179055507f62e78cea01bee320cd4e420270b5ea74000d11b0c9f74754ebdbfc544b05a25833604051808273ffffffffffffffffffffffffffffffffffffffff1673ffffffffffffffffffffffffffffffffffffffff16815260200191505060405180910390a1565b6000600254905090565b6000808284019050838110151515620005ef57600080fd5b8091505092915050565b60008273ffffffffffffffffffffffffffffffffffffffff16141515156200062057600080fd5b6200064581600254620005d76401000000000262001cd2179091906401000000009004565b600281905550620006ac816000808573ffffffffffffffffffffffffffffffffffffffff1673ffffffffffffffffffffffffffffffffffffffff16815260200190815260200160002054620005d76401000000000262001cd2179091906401000000009004565b6000808473ffffffffffffffffffffffffffffffffffffffff1673ffffffffffffffffffffffffffffffffffffffff168152602001908152602001600020819055508173ffffffffffffffffffffffffffffffffffffffff16600073ffffffffffffffffffffffffffffffffffffffff167fddf252ad1be2c89b69c2b068fc378daa952ba7f163c4a11628f55a4df523b3ef836040518082815260200191505060405180910390a35050565b60008073ffffffffffffffffffffffffffffffffffffffff168273ffffffffffffffffffffffffffffffffffffffff16141515156200079657600080fd5b8260000160008373ffffffffffffffffffffffffffffffffffffffff1673ffffffffffffffffffffffffffffffffffffffff16815260200190815260200160002060009054906101000a900460ff16905092915050565b600062000813826005620007586401000000000262001590179091906401000000009004565b9050919050565b828054600181600116156101000203166002900490600052602060002090601f016020900481019282601f106200085d57805160ff19168380011785556200088e565b828001600101855582156200088e579182015b828111156200088d57825182559160200191906001019062000870565b5b5090506200089d9190620008a1565b5090565b620008c691905b80821115620008c2576000816000905550600101620008a8565b5090565b90565b61232780620008d96000396000f30060806040526004361061015f576000357c0100000000000000000000000000000000000000000000000000000000900463ffffffff16806306fdde0314610164578063095ea7b3146101f457806318160ddd146102595780632121dc751461028457806323b872dd146102b3578063313ce56714610338578063355274ea1461036957806339509351146103945780633f4ba83a146103f957806340c10f191461041057806342966c681461047557806346b45af7146104a257806346fbf68e146104d15780635c975abb1461052c5780636ef8d66d1461055b57806370a082311461057257806379cc6790146105c957806382dc1ec4146106165780638456cb5914610659578063883356d91461067057806395d89b411461069f578063983b2d561461072f5780639865027514610772578063a457c2d714610789578063a9059cbb146107ee578063aa271e1a14610853578063dd62ed3e146108ae575b600080fd5b34801561017057600080fd5b50610179610925565b6040518080602001828103825283818151815260200191508051906020019080838360005b838110156101b957808201518184015260208101905061019e565b50505050905090810190601f1680156101e65780820380516001836020036101000a031916815260200191505b509250505060405180910390f35b34801561020057600080fd5b5061023f600480360381019080803573ffffffffffffffffffffffffffffffffffffffff169060200190929190803590602001909291905050506109c3565b604051808215151515815260200191505060405180910390f35b34801561026557600080fd5b5061026e6109f3565b6040518082815260200191505060405180910390f35b34801561029057600080fd5b506102996109fd565b604051808215151515815260200191505060405180910390f35b3480156102bf57600080fd5b5061031e600480360381019080803573ffffffffffffffffffffffffffffffffffffffff169060200190929190803573ffffffffffffffffffffffffffffffffffffffff16906020019092919080359060200190929190505050610a10565b604051808215151515815260200191505060405180910390f35b34801561034457600080fd5b5061034d610a42565b604051808260ff1660ff16815260200191505060405180910390f35b34801561037557600080fd5b5061037e610a55565b6040518082815260200191505060405180910390f35b3480156103a057600080fd5b506103df600480360381019080803573ffffffffffffffffffffffffffffffffffffffff16906020019092919080359060200190929190505050610a5f565b604051808215151515815260200191505060405180910390f35b34801561040557600080fd5b5061040e610a8f565b005b34801561041c57600080fd5b5061045b600480360381019080803573ffffffffffffffffffffffffffffffffffffffff16906020019092919080359060200190929190505050610b3b565b604051808215151515815260200191505060405180910390f35b34801561048157600080fd5b506104a060048036038101908080359060200190929190505050610bd3565b005b3480156104ae57600080fd5b506104b7610c63565b604051808215151515815260200191505060405180910390f35b3480156104dd57600080fd5b50610512600480360381019080803573ffffffffffffffffffffffffffffffffffffffff169060200190929190505050610c76565b604051808215151515815260200191505060405180910390f35b34801561053857600080fd5b50610541610c93565b604051808215151515815260200191505060405180910390f35b34801561056757600080fd5b50610570610caa565b005b34801561057e57600080fd5b506105b3600480360381019080803573ffffffffffffffffffffffffffffffffffffffff169060200190929190505050610cb5565b6040518082815260200191505060405180910390f35b3480156105d557600080fd5b50610614600480360381019080803573ffffffffffffffffffffffffffffffffffffffff16906020019092919080359060200190929190505050610cfd565b005b34801561062257600080fd5b50610657600480360381019080803573ffffffffffffffffffffffffffffffffffffffff169060200190929190505050610d8f565b005b34801561066557600080fd5b5061066e610daf565b005b34801561067c57600080fd5b50610685610e63565b604051808215151515815260200191505060405180910390f35b3480156106ab57600080fd5b506106b4610e76565b6040518080602001828103825283818151815260200191508051906020019080838360005b838110156106f45780820151818401526020810190506106d9565b50505050905090810190601f1680156107215780820380516001836020036101000a031916815260200191505b509250505060405180910390f35b34801561073b57600080fd5b50610770600480360381019080803573ffffffffffffffffffffffffffffffffffffffff169060200190929190505050610f14565b005b34801561077e57600080fd5b50610787610f34565b005b34801561079557600080fd5b506107d4600480360381019080803573ffffffffffffffffffffffffffffffffffffffff16906020019092919080359060200190929190505050610f3f565b604051808215151515815260200191505060405180910390f35b3480156107fa57600080fd5b50610839600480360381019080803573ffffffffffffffffffffffffffffffffffffffff16906020019092919080359060200190929190505050610f6f565b604051808215151515815260200191505060405180910390f35b34801561085f57600080fd5b50610894600480360381019080803573ffffffffffffffffffffffffffffffffffffffff169060200190929190505050610f9f565b604051808215151515815260200191505060405180910390f35b3480156108ba57600080fd5b5061090f600480360381019080803573ffffffffffffffffffffffffffffffffffffffff169060200190929190803573ffffffffffffffffffffffffffffffffffffffff169060200190929190505050610fbc565b6040518082815260200191505060405180910390f35b60078054600181600116156101000203166002900480601f0160208091040260200160405190810160405280929190818152602001828054600181600116156101000203166002900480156109bb5780601f10610990576101008083540402835291602001916109bb565b820191906000526020600020905b81548152906001019060200180831161099e57829003601f168201915b505050505081565b6000600660009054906101000a900460ff161515156109e157600080fd5b6109eb8383611043565b905092915050565b6000600254905090565b600960029054906101000a900460ff1681565b6000600660009054906101000a900460ff16151515610a2e57600080fd5b610a39848484611170565b90509392505050565b600960009054906101000a900460ff1681565b6000600454905090565b6000600660009054906101000a900460ff16151515610a7d57600080fd5b610a878383611322565b905092915050565b600960049054906101000a900460ff161515610b39576040517f08c379a00000000000000000000000000000000000000000000000000000000081526004018080602001828103825260298152602001807f746869732066756e6374696f6e2063616e206f6e6c792062652072756e206f6e81526020017f206372656174696f6e000000000000000000000000000000000000000000000081525060400191505060405180910390fd5b565b6000600960039054906101000a900460ff161515610bc1576040517f08c379a00000000000000000000000000000000000000000000000000000000081526004018080602001828103825260118152602001807f436f696e206e6f74206d696e7461626c6500000000000000000000000000000081525060200191505060405180910390fd5b610bcb8383611559565b905092915050565b600960019054906101000a900460ff161515610c57576040517f08c379a00000000000000000000000000000000000000000000000000000000081526004018080602001828103825260118152602001807f436f696e206e6f74206275726e61626c6500000000000000000000000000000081525060200191505060405180910390fd5b610c6081611583565b50565b600960039054906101000a900460ff1681565b6000610c8c82600561159090919063ffffffff16565b9050919050565b6000600660009054906101000a900460ff16905090565b610cb333611624565b565b60008060008373ffffffffffffffffffffffffffffffffffffffff1673ffffffffffffffffffffffffffffffffffffffff168152602001908152602001600020549050919050565b600960019054906101000a900460ff161515610d81576040517f08c379a00000000000000000000000000000000000000000000000000000000081526004018080602001828103825260118152602001807f436f696e206e6f74206275726e61626c6500000000000000000000000000000081525060200191505060405180910390fd5b610d8b828261167e565b5050565b610d9833610c76565b1515610da357600080fd5b610dac8161168c565b50565b600960049054906101000a900460ff161515610e59576040517f08c379a00000000000000000000000000000000000000000000000000000000081526004018080602001828103825260298152602001807f746869732066756e6374696f6e2063616e206f6e6c792062652072756e206f6e81526020017f206372656174696f6e000000000000000000000000000000000000000000000081525060400191505060405180910390fd5b610e616116e6565b565b600960019054906101000a900460ff1681565b60088054600181600116156101000203166002900480601f016020809104026020016040519081016040528092919081815260200182805460018160011615610100020316600290048015610f0c5780601f10610ee157610100808354040283529160200191610f0c565b820191906000526020600020905b815481529060010190602001808311610eef57829003601f168201915b505050505081565b610f1d33610f9f565b1515610f2857600080fd5b610f3181611796565b50565b610f3d336117f0565b565b6000600660009054906101000a900460ff16151515610f5d57600080fd5b610f67838361184a565b905092915050565b6000600660009054906101000a900460ff16151515610f8d57600080fd5b610f978383611a81565b905092915050565b6000610fb582600361159090919063ffffffff16565b9050919050565b6000600160008473ffffffffffffffffffffffffffffffffffffffff1673ffffffffffffffffffffffffffffffffffffffff16815260200190815260200160002060008373ffffffffffffffffffffffffffffffffffffffff1673ffffffffffffffffffffffffffffffffffffffff16815260200190815260200160002054905092915050565b60008073ffffffffffffffffffffffffffffffffffffffff168373ffffffffffffffffffffffffffffffffffffffff161415151561108057600080fd5b81600160003373ffffffffffffffffffffffffffffffffffffffff1673ffffffffffffffffffffffffffffffffffffffff16815260200190815260200160002060008573ffffffffffffffffffffffffffffffffffffffff1673ffffffffffffffffffffffffffffffffffffffff168152602001908152602001600020819055508273ffffffffffffffffffffffffffffffffffffffff163373ffffffffffffffffffffffffffffffffffffffff167f8c5be1e5ebec7d5bd14f71427d1e84f3dd0314c0f7b2291e5b200ac8c7c3b925846040518082815260200191505060405180910390a36001905092915050565b6000600160008573ffffffffffffffffffffffffffffffffffffffff1673ffffffffffffffffffffffffffffffffffffffff16815260200190815260200160002060003373ffffffffffffffffffffffffffffffffffffffff1673ffffffffffffffffffffffffffffffffffffffff1681526020019081526020016000205482111515156111fd57600080fd5b61128c82600160008773ffffffffffffffffffffffffffffffffffffffff1673ffffffffffffffffffffffffffffffffffffffff16815260200190815260200160002060003373ffffffffffffffffffffffffffffffffffffffff1673ffffffffffffffffffffffffffffffffffffffff16815260200190815260200160002054611a9890919063ffffffff16565b600160008673ffffffffffffffffffffffffffffffffffffffff1673ffffffffffffffffffffffffffffffffffffffff16815260200190815260200160002060003373ffffffffffffffffffffffffffffffffffffffff1673ffffffffffffffffffffffffffffffffffffffff16815260200190815260200160002081905550611317848484611ab9565b600190509392505050565b60008073ffffffffffffffffffffffffffffffffffffffff168373ffffffffffffffffffffffffffffffffffffffff161415151561135f57600080fd5b6113ee82600160003373ffffffffffffffffffffffffffffffffffffffff1673ffffffffffffffffffffffffffffffffffffffff16815260200190815260200160002060008673ffffffffffffffffffffffffffffffffffffffff1673ffffffffffffffffffffffffffffffffffffffff16815260200190815260200160002054611cd290919063ffffffff16565b600160003373ffffffffffffffffffffffffffffffffffffffff1673ffffffffffffffffffffffffffffffffffffffff16815260200190815260200160002060008573ffffffffffffffffffffffffffffffffffffffff1673ffffffffffffffffffffffffffffffffffffffff168152602001908152602001600020819055508273ffffffffffffffffffffffffffffffffffffffff163373ffffffffffffffffffffffffffffffffffffffff167f8c5be1e5ebec7d5bd14f71427d1e84f3dd0314c0f7b2291e5b200ac8c7c3b925600160003373ffffffffffffffffffffffffffffffffffffffff1673ffffffffffffffffffffffffffffffffffffffff16815260200190815260200160002060008773ffffffffffffffffffffffffffffffffffffffff1673ffffffffffffffffffffffffffffffffffffffff168152602001908152602001600020546040518082815260200191505060405180910390a36001905092915050565b600061156433610f9f565b151561156f57600080fd5b6115798383611cf3565b6001905092915050565b61158d3382611d2b565b50565b60008073ffffffffffffffffffffffffffffffffffffffff168273ffffffffffffffffffffffffffffffffffffffff16141515156115cd57600080fd5b8260000160008373ffffffffffffffffffffffffffffffffffffffff1673ffffffffffffffffffffffffffffffffffffffff16815260200190815260200160002060009054906101000a900460ff16905092915050565b611638816005611eb690919063ffffffff16565b8073ffffffffffffffffffffffffffffffffffffffff167fcd265ebaf09df2871cc7bd4133404a235ba12eff2041bb89d9c714a2621c7c7e60405160405180910390a250565b6116888282611f65565b5050565b6116a081600561210d90919063ffffffff16565b8073ffffffffffffffffffffffffffffffffffffffff167f6719d08c1888103bea251a4ed56406bd0c3e69723c8a1686e017e7bbe159b6f860405160405180910390a250565b6116ef33610c76565b15156116fa57600080fd5b600660009054906101000a900460ff1615151561171657600080fd5b6001600660006101000a81548160ff0219169083151502179055507f62e78cea01bee320cd4e420270b5ea74000d11b0c9f74754ebdbfc544b05a25833604051808273ffffffffffffffffffffffffffffffffffffffff1673ffffffffffffffffffffffffffffffffffffffff16815260200191505060405180910390a1565b6117aa81600361210d90919063ffffffff16565b8073ffffffffffffffffffffffffffffffffffffffff167f6ae172837ea30b801fbfcdd4108aa1d5bf8ff775444fd70256b44e6bf3dfc3f660405160405180910390a250565b611804816003611eb690919063ffffffff16565b8073ffffffffffffffffffffffffffffffffffffffff167fe94479a9f7e1952cc78f2d6baab678adc1b772d936c6583def489e524cb6669260405160405180910390a250565b60008073ffffffffffffffffffffffffffffffffffffffff168373ffffffffffffffffffffffffffffffffffffffff161415151561188757600080fd5b61191682600160003373ffffffffffffffffffffffffffffffffffffffff1673ffffffffffffffffffffffffffffffffffffffff16815260200190815260200160002060008673ffffffffffffffffffffffffffffffffffffffff1673ffffffffffffffffffffffffffffffffffffffff16815260200190815260200160002054611a9890919063ffffffff16565b600160003373ffffffffffffffffffffffffffffffffffffffff1673ffffffffffffffffffffffffffffffffffffffff16815260200190815260200160002060008573ffffffffffffffffffffffffffffffffffffffff1673ffffffffffffffffffffffffffffffffffffffff168152602001908152602001600020819055508273ffffffffffffffffffffffffffffffffffffffff163373ffffffffffffffffffffffffffffffffffffffff167f8c5be1e5ebec7d5bd14f71427d1e84f3dd0314c0f7b2291e5b200ac8c7c3b925600160003373ffffffffffffffffffffffffffffffffffffffff1673ffffffffffffffffffffffffffffffffffffffff16815260200190815260200160002060008773ffffffffffffffffffffffffffffffffffffffff1673ffffffffffffffffffffffffffffffffffffffff168152602001908152602001600020546040518082815260200191505060405180910390a36001905092915050565b6000611a8e338484611ab9565b6001905092915050565b600080838311151515611aaa57600080fd5b82840390508091505092915050565b6000808473ffffffffffffffffffffffffffffffffffffffff1673ffffffffffffffffffffffffffffffffffffffff168152602001908152602001600020548111151515611b0657600080fd5b600073ffffffffffffffffffffffffffffffffffffffff168273ffffffffffffffffffffffffffffffffffffffff1614151515611b4257600080fd5b611b93816000808673ffffffffffffffffffffffffffffffffffffffff1673ffffffffffffffffffffffffffffffffffffffff16815260200190815260200160002054611a9890919063ffffffff16565b6000808573ffffffffffffffffffffffffffffffffffffffff1673ffffffffffffffffffffffffffffffffffffffff16815260200190815260200160002081905550611c26816000808573ffffffffffffffffffffffffffffffffffffffff1673ffffffffffffffffffffffffffffffffffffffff16815260200190815260200160002054611cd290919063ffffffff16565b6000808473ffffffffffffffffffffffffffffffffffffffff1673ffffffffffffffffffffffffffffffffffffffff168152602001908152602001600020819055508173ffffffffffffffffffffffffffffffffffffffff168373ffffffffffffffffffffffffffffffffffffffff167fddf252ad1be2c89b69c2b068fc378daa952ba7f163c4a11628f55a4df523b3ef836040518082815260200191505060405180910390a3505050565b6000808284019050838110151515611ce957600080fd5b8091505092915050565b600454611d1082611d026109f3565b611cd290919063ffffffff16565b11151515611d1d57600080fd5b611d2782826121bd565b5050565b60008273ffffffffffffffffffffffffffffffffffffffff1614151515611d5157600080fd5b6000808373ffffffffffffffffffffffffffffffffffffffff1673ffffffffffffffffffffffffffffffffffffffff168152602001908152602001600020548111151515611d9e57600080fd5b611db381600254611a9890919063ffffffff16565b600281905550611e0a816000808573ffffffffffffffffffffffffffffffffffffffff1673ffffffffffffffffffffffffffffffffffffffff16815260200190815260200160002054611a9890919063ffffffff16565b6000808473ffffffffffffffffffffffffffffffffffffffff1673ffffffffffffffffffffffffffffffffffffffff16815260200190815260200160002081905550600073ffffffffffffffffffffffffffffffffffffffff168273ffffffffffffffffffffffffffffffffffffffff167fddf252ad1be2c89b69c2b068fc378daa952ba7f163c4a11628f55a4df523b3ef836040518082815260200191505060405180910390a35050565b600073ffffffffffffffffffffffffffffffffffffffff168173ffffffffffffffffffffffffffffffffffffffff1614151515611ef257600080fd5b611efc8282611590565b1515611f0757600080fd5b60008260000160008373ffffffffffffffffffffffffffffffffffffffff1673ffffffffffffffffffffffffffffffffffffffff16815260200190815260200160002060006101000a81548160ff0219169083151502179055505050565b600160008373ffffffffffffffffffffffffffffffffffffffff1673ffffffffffffffffffffffffffffffffffffffff16815260200190815260200160002060003373ffffffffffffffffffffffffffffffffffffffff1673ffffffffffffffffffffffffffffffffffffffff168152602001908152602001600020548111151515611ff057600080fd5b61207f81600160008573ffffffffffffffffffffffffffffffffffffffff1673ffffffffffffffffffffffffffffffffffffffff16815260200190815260200160002060003373ffffffffffffffffffffffffffffffffffffffff1673ffffffffffffffffffffffffffffffffffffffff16815260200190815260200160002054611a9890919063ffffffff16565b600160008473ffffffffffffffffffffffffffffffffffffffff1673ffffffffffffffffffffffffffffffffffffffff16815260200190815260200160002060003373ffffffffffffffffffffffffffffffffffffffff1673ffffffffffffffffffffffffffffffffffffffff168152602001908152602001600020819055506121098282611d2b565b5050565b600073ffffffffffffffffffffffffffffffffffffffff168173ffffffffffffffffffffffffffffffffffffffff161415151561214957600080fd5b6121538282611590565b15151561215f57600080fd5b60018260000160008373ffffffffffffffffffffffffffffffffffffffff1673ffffffffffffffffffffffffffffffffffffffff16815260200190815260200160002060006101000a81548160ff0219169083151502179055505050565b60008273ffffffffffffffffffffffffffffffffffffffff16141515156121e357600080fd5b6121f881600254611cd290919063ffffffff16565b60028190555061224f816000808573ffffffffffffffffffffffffffffffffffffffff1673ffffffffffffffffffffffffffffffffffffffff16815260200190815260200160002054611cd290919063ffffffff16565b6000808473ffffffffffffffffffffffffffffffffffffffff1673ffffffffffffffffffffffffffffffffffffffff168152602001908152602001600020819055508173ffffffffffffffffffffffffffffffffffffffff16600073ffffffffffffffffffffffffffffffffffffffff167fddf252ad1be2c89b69c2b068fc378daa952ba7f163c4a11628f55a4df523b3ef836040518082815260200191505060405180910390a350505600a165627a7a7230582081411b84d06a9224d7385c4b52dda5852ed8adf4a1f93dd457887347b8519d350029",
  "source": "pragma solidity ^0.4.24;\n\nimport \"../token/ERC20/ERC20Mintable.sol\";\nimport \"../token/ERC20/ERC20Burnable.sol\";\nimport \"../token/ERC20/ERC20Capped.sol\";\nimport \"../token/ERC20/ERC20Pausable.sol\";\n\n\n/**\n * @title AllPurpose\n* @dev ERC20 Token, where all tokens (INITIAL_SUPPLY) are pre-assigned to the creator.\n * Note they can later distribute these tokens as they wish using `transfer` and other\n * `ERC20` functions.\n * Depending on the parameters provided, this token can be mintable, burnable and/or \n * pausable (non-transferable).\n */\ncontract AllPurpose is ERC20Mintable, ERC20Burnable, ERC20Pausable {\n\n  string public  name;\n  string public  symbol;\n  uint8 public  decimals;\n\n  bool   public  isBurnable;\n  bool   public  isTransferable;\n  bool   public  isMintable;\n\n  bool   private constructing = true;\n\n  /**\n   * @dev Burns a specific amount of tokens.\n   * @param value The amount of token to be burned.\n   */\n  function burn(uint256 value) public {\n      // Checks whether token is burnable before minting\n      require(isBurnable, \"Coin not burnable\");\n      super.burn(value);\n  }\n\n  /**\n   * @dev Burns a specific amount of tokens from the target address and decrements allowance\n   * @param from address The address which you want to send tokens from\n   * @param value uint256 The amount of token to be burned\n   */\n  function burnFrom(address from, uint256 value) public {\n      // Checks whether token is burnable before minting\n      require(isBurnable, \"Coin not burnable\");\n      super.burnFrom(from, value);\n  }\n\n  /**\n   * @dev Function to mint tokens\n   * @param to The address that will receive the minted tokens.\n   * @param value The amount of tokens to mint.\n   * @return A boolean that indicates if the operation was successful.\n   */\n  function mint(\n    address to,\n    uint256 value\n  )\n    public\n    returns (bool)\n  {\n    // Checks whether token is mintable before minting\n    require(isMintable, \"Coin not mintable\");\n    return super.mint(to, value);\n  }\n\n  /**\n   * @dev called by the owner to pause, triggers stopped state.\n   * This means functions transfer, transferFrom, approve, increaseAllowance,\n   * and decreasAllowance, will not execute.\n   */\n  function pause() public{\n    // Checks whether token is being constructed, throws exception if not\n    require(constructing, \"this function can only be run on creation\");\n    super.pause();\n  }\n\n   /**\n   * @dev This will undo pause(). The purpose of this declaration is to \n   * disable this function, as this function must not be called (unless\n   * making an untransferable token transferable again is wanted, but\n   * this is currently not an offered feature).\n   */  \n  function unpause() public{\n    // Checks whether token is being constructed, throws exception if not\n    require(constructing, \"this function can only be run on creation\");\n  }\n\n  constructor(\n    string name_,\n    string symbol_,\n    uint8 decimals_,\n    address minter,\n    bool isBurnable_,\n    bool isTransferable_,\n    bool isMintable_,\n    uint initialSupply)\n      public\n  {\n    name = name_;\n    symbol = symbol_;\n    decimals = decimals_;\n    isBurnable = isBurnable_;\n    isTransferable = isTransferable_;\n    isMintable = isMintable_;\n    if(!isTransferable_){\n      pause();\n    }\n    _addMinter(minter);\n    _mint(msg.sender, initialSupply);\n    // To indicate construction is over, and block pause() and unpause()\n    // from being used\n    constructing = false;\n  }\n}\n\n/**\n * @title AllPurposeCapped\n * @dev ERC20 Token, which acts very similarly to AllPurpose, but with the \n * exception that it has a cap. \n */\ncontract AllPurposeCapped is ERC20Capped, AllPurpose {\n\n  constructor(\n    string name_,\n    string symbol_,\n    uint8 decimals_,\n    address minter,\n    bool isBurnable_,\n    uint cap_,\n    bool isTransferable_,\n    bool isMintable_,\n    uint initialSupply)\n      public\n      // ERC2Capped constructor\n      ERC20Capped(cap_)\n      // AllPurpose constructor\n      AllPurpose(\n          name_,\n          symbol_,\n          decimals_,\n          minter,\n          isBurnable_,\n          isTransferable_,\n          isMintable_,\n          initialSupply)\n  {\n  }\n}\n",
  "sourcePath": "/home/squid/Documents/projects/go/src/github.com/FuturICT2/fin4-core/server/ethereum/tests/contracts/AllPurpose.sol",
  "compiler": {
    "name": "solc",
    "version": "0.4.25+commit.59dbf8f1.Emscripten.clang"
  },
  "schemaVersion": "3.0.9",
  "updatedAt": "2019-07-19T09:52:59.765Z",
  "devdoc": {
    "methods": {
      "allowance(address,address)": {
        "details": "Function to check the amount of tokens that an owner allowed to a spender.",
        "params": {
          "owner": "address The address which owns the funds.",
          "spender": "address The address which will spend the funds."
        },
        "return": "A uint256 specifying the amount of tokens still available for the spender."
      },
      "balanceOf(address)": {
        "details": "Gets the balance of the specified address.",
        "params": {
          "owner": "The address to query the balance of."
        },
        "return": "An uint256 representing the amount owned by the passed address."
      },
      "burn(uint256)": {
        "details": "Burns a specific amount of tokens.",
        "params": {
          "value": "The amount of token to be burned."
        }
      },
      "burnFrom(address,uint256)": {
        "details": "Burns a specific amount of tokens from the target address and decrements allowance",
        "params": {
          "from": "address The address which you want to send tokens from",
          "value": "uint256 The amount of token to be burned"
        }
      },
      "cap()": {
        "return": "the cap for the token minting."
      },
      "mint(address,uint256)": {
        "details": "Function to mint tokens",
        "params": {
          "to": "The address that will receive the minted tokens.",
          "value": "The amount of tokens to mint."
        },
        "return": "A boolean that indicates if the operation was successful."
      },
      "pause()": {
        "details": "called by the owner to pause, triggers stopped state. This means functions transfer, transferFrom, approve, increaseAllowance, and decreasAllowance, will not execute."
      },
      "paused()": {
        "return": "true if the contract is paused, false otherwise."
      },
      "totalSupply()": {
        "details": "Total number of tokens in existence"
      },
      "unpause()": {
        "details": "This will undo pause(). The purpose of this declaration is to  disable this function, as this function must not be called (unless making an untransferable token transferable again is wanted, but this is currently not an offered feature)."
      }
    },
    "title": "AllPurposeCapped"
  },
  "userdoc": {
    "methods": {}
  }
}